:1000000071C000008EC000008CC000008AC00000DB
:1000100088C0000086C0000084C0000082C00000CC
:1000200080C000007EC000007CC000007AC00000DC
:1000300078C0000076C0000074C0000072C00000EC
:1000400070C000006EC000006CC000006AC00000FC
:1000500068C0000066C0000064C0000062C000000C
:1000600060C000005EC000005CC000005AC000001C
:1000700058C0000056C0000054C0000052C000002C
:1000800050C000004EC000004CC000004AC000003C
:1000900048C0000046C0000044C0000042C000004C
:1000A00040C000003EC000003CC000003AC000005C
:1000B00038C0000036C0000034C0000032C000006C
:1000C00030C000002EC000003FC100002AC0000068
:1000D00028C0000026C0000024C0000022C000008C
:1000E00020C0000011241FBECFEFD1E2DEBFCDBF84
:1000F00000E00CBF12E0A0E0B2E0E6E4F5E000E0D2
:100100000BBF02C007900D92A437B107D9F722E0C8
:10011000A4E7B2E001C01D92A837B207E1F7D5D13C
:1001200010C26ECF9091C00095FFFCCF8093C600A7
:1001300008958091C00085FFFCCF8AE08093C600BF
:100140000895CF93DF93EC0102C0ECDF2196888104
:100150008111FBCFDF91CF910895CF93C0E00CC008
:10016000EC2FF0E0EE0FFF1FEC5BFD4F0190F081F4
:10017000E02D8081D7DFCF5FC23190F3CF9108951A
:10018000CF93DF93C0E00CC0EC2FF0E0EE0FFF1F29
:10019000E85EFD4F0190F081E02D8081C3DFCF5FED
:1001A000C33090F3C8E1D2E0EE81FF818081BADFF5
:1001B000EE81FF818181B6DFE885F9858081B2DF3C
:1001C000E885F9858181AEDFC5E00CC0EC2FF0E059
:1001D000EE0FFF1FE85EFD4F0190F081E02D808162
:1001E000A1DFCF5FC83090F3C8E1D2E0E889F98998
:1001F000808198DFE889F989818194DFEA89FB8928
:10020000808190DFEA89FB8981818CDFEC89FD891F
:10021000808188DFEC89FD89818184DFCBE00CC09F
:10022000EC2FF0E0EE0FFF1FE85EFD4F0190F08134
:10023000E02D808177DFCF5FCE3090F3C8E1D2E050
:10024000EC8DFD8D80816EDFEC8DFD8D81816ADF0F
:10025000EE8DFF8D808166DFEE8DFF8D818162DF07
:10026000C0E10CC0EC2FF0E0EE0FFF1FE85EFD4F89
:100270000190F081E02D808155DFCF5FC33190F395
:10028000C8E1D2E0EEA1FFA180814CDFEEA1FFA189
:10029000818148DFE8A5F9A5808144DFE8A5F9A5BB
:1002A000818140DFEAA5FBA580813CDFEAA5FBA5B3
:1002B000818138DFDF91CF910895CF93C0E00CC0EA
:1002C000EC2FF0E0EE0FFF1FE45FFD4F0190F08197
:1002D000E02D808127DFCF5FC63090F3CF91089566
:1002E000CF93C0E00CC0EC2FF0E0EE0FFF1FEA5FF1
:1002F000FD4F0190F081E02D808114DFCF5FC3308E
:1003000090F3CF910895CF93C0E00CC0EC2FF0E0B4
:10031000EE0FFF1FE050FE4F0190F081E02D808135
:1003200001DFCF5FC33090F3CF9108958CE692E068
:1003300008DFFFDE12DF24DFC0DFD2DFE4DF88E684
:1003400092E0FFDEF6CE08951F920F920FB60F9245
:1003500011240BB60F922F933F934F935F936F939C
:100360007F938F939F93AF93BF93EF93FF9385EE0C
:1003700099EF9093250180932401D8DFFF91EF91AD
:10038000BF91AF919F918F917F916F915F914F91AD
:100390003F912F910F900BBE0F900FBE0F901F90AB
:1003A0001895E0917602F09177029081987F9460A1
:1003B0009083E0917402F0917502808387EC90E065
:1003C0000197F1F700C00000E0917602F09177020A
:1003D0008081897F80838FE19EE40197F1F700C0DF
:1003E00000000895FC01DA018C918FEF8C93D90104
:1003F0001C92908197609083FB018081887F80832D
:1004000070937702609376023093750220937402A2
:10041000FFE725EB81E0F15020408040E1F700C08C
:10042000000088E3BEDFA7ECB0E01197F1F700C051
:1004300000008CE0B6DFE7ECF0E03197F1F700C0A8
:10044000000081E0AEDF8FE39FE10197F1F700C08C
:10045000000086E0A6CF0895E0917602F091770241
:100460002081287F21602083FC0125C0A091760295
:10047000B09177028C9184608C93A0917402B091BA
:1004800075029F012F5F3F4F80818C9387EC90E036
:100490000197F1F700C00000E0917602F091770239
:1004A0008081887F8160808387EC90E00197F1F7FD
:1004B00000C00000F90180818111D8CF8FE19EE456
:1004C0000197F1F700C0000008952BE031E04AE009
:1004D00051E06BE270E08AE290E084DF81E061DF6E
:1004E0008FE39FE10197F1F700C0000082E059DF40
:1004F0008FE39FE10197F1F700C0000086E851DF2C
:100500009FEF20E782E0915020408040E1F700C05B
:1005100000008FE692E0A0DF9FEF20E782E091509D
:1005200020408040E1F700C0000086EC3ADF87EC15
:1005300090E00197F1F700C000008FE692E08CDFB9
:06054000FFCFF894FFCF8D
:1005460069006A003D007A007B007C00C000C100A3
:10055600C200C800C900CA00440045006E0047003A
:100566004800800081006F0088008A008C00B0007F
:10057600B1007000B300B4009000910071009800C3
:100586009A009C0021002200200027002800260057
:100596000A010B0109012A002B0029003000310055
:1005A6002F00070108010601454E4400535400542C
:0405B60065737400F5
:00000001FF
