:1000000071C000008EC000008CC000008AC00000DB
:1000100088C0000086C0000084C0000082C00000CC
:1000200080C000007EC000007CC000007AC00000DC
:1000300078C0000076C0000074C0000072C00000EC
:1000400070C000006EC000006CC000006AC00000FC
:1000500068C0000066C0000064C0000062C000000C
:1000600060C000005EC000005CC000005AC000001C
:1000700058C0000056C0000054C0000052C000002C
:1000800050C000004EC000004CC000004AC000003C
:1000900048C0000046C0000044C0000042C000004C
:1000A00040C00000F3C100003CC000003AC00000A6
:1000B00038C0000031C2000034C0000032C000006F
:1000C00030C000002EC000002CC000002AC000007C
:1000D00028C0000026C0000024C0000022C000008C
:1000E00020C0000011241FBECFEFD1E2DEBFCDBF84
:1000F00000E00CBF12E0A0E0B2E0E0E9FBE000E0CD
:100100000BBF02C007900D92A633B107D9F722E0CA
:10011000A6E3B2E001C01D92A534B207E1F7FFD01B
:1001200035C56ECFE0913802F09139029081987F09
:1001300094609083E0913602F0913702808387ECDF
:1001400090E00197F1F700C00000E0913802F091D3
:1001500039028081897F80838FE19EE40197F1F7E6
:1001600000C000000895FC01DA018C918FEF8C93A0
:10017000D9011C92908197609083FB018081887FD8
:100180008083709339026093380230933702209352
:100190003602FFE725EB81E0F15020408040E1F797
:1001A00000C0000088E3BEDFA7ECB0E01197F1F7D4
:1001B00000C000008CE0B6DFE7ECF0E03197F1F72B
:1001C00000C0000081E0AEDF8FE39FE10197F1F70F
:1001D00000C0000086E0A6CF0895E0913802F091BB
:1001E00039029081987F95609083E0913602F0917A
:1001F0003702808387EC90E00197F1F700C00000A0
:10020000E0913802F09139028081887F816080839B
:100210008FE19EE40197F1F700C000000895E0919E
:100220003802F09139022081287F21602083FC016F
:1002300025C0A0913802B09139028C9184608C93D2
:10024000A0913602B09137029F012F5F3F4F80810E
:100250008C9387EC90E00197F1F700C00000E091EB
:100260003802F09139028081887F8160808387EC39
:1002700090E00197F1F700C00000F9018081811141
:10028000D8CF8FE19EE40197F1F700C000000895F8
:10029000CF93DF93CDB7DEB728970FB6F894DEBFC4
:1002A0000FBECDBFFB0190819F71906499839181B6
:1002B0009F7190649A8392819F7190649B839381D4
:1002C0009F7190649C8394819F7190649D839581BC
:1002D0009F7190649E8396819F7190649F839781A4
:1002E0009F71906498871EDFCE01019698DF289653
:1002F0000FB6F894DEBF0FBECDBFDF91CF9108954A
:10030000282F30E020543109C90199230CF40796B5
:100310009595879595958795959587950895CF930C
:10032000DF93CDB7DEB760970FB6F894DEBF0FBE90
:10033000CDBF10920A0181E080930B011092A000C2
:1003400001EA10E080E4F8018083E2E7F0E08081D8
:100350008162808322E230E041E250E064E370E0B9
:1003600083E390E000DF69E272E080E491DF61E224
:1003700072E088E48DDF69E172E080E589DF61E1A8
:1003800072E088E585DF69E072E080E681DF61E0A8
:1003900072E088E67DDF69E172E080E779DF81E085
:1003A000C1DE82E0BFDEF8018081816080837894C5
:1003B00010920002809100028230E1F782E8B2DE02
:1003C00080E49EDF0ADF80913C02882339F082E8D6
:1003D000A9DE88E495DF01DF12E055C080913D027F
:1003E00090913E0220913A0230913B02A90160E0D7
:1003F00070E0BA0155274427480F591F611D711D30
:1004000080914302909144029A01AB01281B390B61
:100410004109510960E074E284EF90E0BAD05F9343
:100420004F933F932F9381E392E09F938F93CE015D
:1004300001969F938F93CFD00FB6F894DEBF0FBE77
:10044000CDBF09C0E1E0F0E0EC0FFD1FE80FF11DAA
:1004500090E290838F5F8031A8F380EC63DECE0161
:100460000196DDDEB9CF80E85DDE812FB6DE1F5F4D
:10047000812FB3DE3FEF83EC99E031508040904014
:10048000E1F700C00000163070F392CF1F920F9278
:100490000FB60F9211248F939F93AF93BF938091C8
:1004A0000002882319F08130B9F02DC08091A60098
:1004B0009091A700909344028093430210923F02D0
:1004C00010924002109241021092420210923C029D
:1004D00081E08093000217C08091A6009091A70050
:1004E00090933E0280933D0280913F0290914002A2
:1004F000A0914102B091420290933B0280933A0254
:1005000082E080930002BF91AF919F918F910F90F5
:100510000FBE0F901F9018951F920F920FB60F925B
:1005200011244F935F936F937F938F939F93AF9318
:10053000BF9380913F0290914002A0914102B091FF
:1005400042020196A11DB11D80933F02909340028B
:10055000A0934102B093420240913F025091400269
:10056000609141027091420281E0452B462B472B5E
:1005700009F080E080933C02BF91AF919F918F91F1
:100580007F916F915F914F910F900FBE0F901F90D1
:100590001895A1E21A2EAA1BBB1BFD010DC0AA1FB4
:1005A000BB1FEE1FFF1FA217B307E407F50720F0DC
:1005B000A21BB30BE40BF50B661F771F881F991F57
:1005C0001A9469F760957095809590959B01AC01A0
:1005D000BD01CF0108950F931F93CF93DF93CDB744
:1005E000DEB72E970FB6F894DEBF0FBECDBF0E89D3
:1005F0001F8986E08C831A8309838FEF9FE79E8390
:100600008D83AE01465E5F4F688D798DCE01019678
:1006100010D0EF81F885E00FF11F10822E960FB6F3
:10062000F894DEBF0FBECDBFDF91CF911F910F9128
:1006300008952F923F924F925F926F927F928F9286
:100640009F92AF92BF92CF92DF92EF92FF920F9361
:100650001F93CF93DF93CDB7DEB72B970FB6F894E8
:10066000DEBF0FBECDBF6C017B018A01FC0117828A
:100670001682838181FFBFC1CE0101963C01F60144
:100680009381F70193FD859193FF81917F018823E9
:1006900009F4ADC1853239F493FD859193FF8191C1
:1006A0007F01853221F4B60190E0D6D1E8CF912CBC
:1006B000212C312CFFE1F315D8F08B3279F038F48E
:1006C000803279F08332A1F4232D20611DC08D3258
:1006D00061F0803369F4232D216016C0832D826080
:1006E000382EE32DE4603E2E2AC0F32DF8601DC0A5
:1006F00037FC2DC020ED280F2A3040F08E32B9F49F
:1007000036FC75C1232D2064322E19C036FE06C07A
:100710008AE0989E200D1124922E11C0EAE02E9EB0
:10072000200D1124222EF32DF0623F2E08C08C36AE
:1007300021F4832D8068382E02C0883641F4F701F9
:1007400093FD859193FF81917F018111B3CF982F04
:100750009F7D9554933028F40C5F1F4F9FE399833E
:100760000DC0833631F0833771F0833509F055C001
:1007700020C0F801808189830E5F1F4F88248394F5
:10078000912C530112C02801F2E04F0E511CF801C8
:10079000A080B18036FE03C0692D70E002C06FEF0B
:1007A0007FEFC5014ED14C018201F32DFF773F2E23
:1007B00015C0280122E0420E511CF801A080B18032
:1007C00036FE03C0692D70E002C06FEF7FEFC501F8
:1007D0002DD14C01F32DF0683F2E820133FC19C05E
:1007E000822D90E088169906A0F4B60180E290E090
:1007F00033D12A94F5CFF50137FC859137FE8191ED
:100800005F01B60190E028D121102A9421E0821ADC
:1008100091088114910479F7E1C0843611F089368A
:1008200039F5F80137FE07C06081718182819381BB
:100830000C5F1F4F08C060817181072E000C880B70
:10084000990B0E5F1F4FF32DFF763F2E97FF09C0C8
:1008500090958095709561957F4F8F4F9F4FF06871
:100860003F2E2AE030E0A30133D1882E861844C001
:10087000853731F4232D2F7EB22E2AE030E025C0BB
:10088000932D997FB92E8F36C1F018F4883579F001
:10089000AEC0803719F0883721F0A9C0E92FE06198
:1008A000BE2EB4FE0DC0FB2DF460BF2E09C034FE79
:1008B0000AC0292F2660B22E06C028E030E005C00D
:1008C00020E130E002C020E132E0F801B7FE07C0CD
:1008D00060817181828193810C5F1F4F06C06081AE
:1008E000718180E090E00E5F1F4FA301F1D0882E50
:1008F0008618FB2DFF773F2E36FE0DC0232D2E7F51
:10090000A22E891458F434FE0BC032FC09C0832D8A
:100910008E7EA82E05C0B82CA32C03C0B82C01C015
:10092000B92CA4FE0FC0FE01E80DF11D80818033BB
:1009300021F49A2D997EA92E09C0A2FE06C0B39477
:10094000B39404C08A2D867809F0B394A3FC10C038
:10095000A0FE06C0B21480F4280C922C9B180DC087
:10096000B21458F4B60180E290E076D0B394F8CF98
:10097000B21418F42B1802C0982C212CA4FE0FC01E
:10098000B60180E390E068D0A2FE16C0A1FC03C0CF
:1009900088E790E002C088E590E0B6010CC08A2D9F
:1009A000867851F0A1FE02C08BE201C080E2A7FC74
:1009B0008DE2B60190E050D0891430F4B60180E3A6
:1009C00090E04AD09A94F8CF8A94F301E80DF11D93
:1009D0008081B60190E040D08110F6CF222009F44A
:1009E0004ECEB60180E290E037D02A94F7CFF601E0
:1009F0008681978102C08FEF9FEF2B960FB6F894F8
:100A0000DEBF0FBECDBFDF91CF911F910F91FF9041
:100A1000EF90DF90CF90BF90AF909F908F907F909E
:100A20006F905F904F903F902F900895FC0105903C
:100A3000615070400110D8F7809590958E0F9F1FE0
:100A40000895FC016150704001900110D8F7809525
:100A500090958E0F9F1F08950F931F93CF93DF9351
:100A6000FB01238121FD03C08FEF9FEF2CC022FFEC
:100A700016C046815781248135814217530744F4BB
:100A8000A081B1819D012F5F3F4F318320838C93E3
:100A9000268137812F5F3F4F3783268314C08B0118
:100AA000EC01FB010084F185E02D1995892BE1F61D
:100AB000D80116968D919C911797019617969C9345
:100AC0008E931697CE01DF91CF911F910F910895CC
:100AD000FA01AA27283051F1203181F1E8946F936F
:100AE0006E7F6E5F7F4F8F4F9F4FAF4FB1E03ED015
:100AF000B4E03CD0670F781F891F9A1FA11D680FB3
:100B0000791F8A1F911DA11D6A0F711D811D911DE5
:100B1000A11D20D009F468943F912AE0269F11245A
:100B20003019305D3193DEF6CF010895462F4770BE
:100B3000405D4193B3E00FD0C9F7F6CF462F4F7019
:100B4000405D4A3318F0495D31FD4052419302D077
:100B5000A9F7EACFB4E0A69597958795779567951D
:100B6000BA95C9F700976105710508959B01AC011D
:100B70000A2E06945795479537952795BA95C9F744
:100B8000620F731F841F951FA01D0895F894FFCF57
:100B9000020000000000001F00001C040404040701
:100BA00000001F0000000000000007040404041CF3
:100BB000000011110A040A111100010102020414BB
:060BC000082575687A00AB
:00000001FF
