S015000050726F6365647572652054776F2E737265630C
S113000071C0000081C000007FC000007DC00000FE
S11300107BC0000079C0000077C0000075C00000FC
S113002073C0000071C000006FC000006DC000000C
S11300306BC0000069C0000067C0000065C000001C
S113004063C0000061C000005FC000005DC000002C
S11300505BC0000059C0000057C0000055C000003C
S113006053C0000051C000004FC000004DC000004C
S11300704BC0000075C0000047C0000045C0000030
S113008043C0000041C000003FC000003DC000006C
S11300903BC0000039C0000037C0000035C000007C
S11300A033C0000031C000002FC000002DC000008C
S11300B02BC0000029C0000027C0000025C000009C
S11300C023C0000021C000001FC000001DC00000AC
S11300D01BC0000019C0000017C0000015C00000BC
S11300E013C0000011241FBECFEFD1E2DEBFCDBF8D
S11300F000E00CBF22E0A0E0B2E001C01D92A230FB
S1130100B207E1F755D060C07BCF83E880937A00D3
S113011080E480937C0010927B000895F6DFEAE788
S1130120F0E08081886080830895ECE7F0E020812E
S1130130207E282B2083EBE7F0E02081969587959D
S113014096958795922F977F892B8083EAE7F0E035
S113015080818064808380910002909101020895DF
S11301601F920F920FB60F9211242F933F938F93E8
S11301709F938091780090E0909301028093000215
S11301802091790030E0322F2227822B932B9093F9
S11301900102809300029F918F913F912F910F90C4
S11301A00FBE0F901F9018958FEF81B912B8089564
S11301B0B5DFFADF789480E090E0B7DF9695879515
S10F01C09695879582B9F7CFF894FFCF8D
S9030000FC
