S00B00005372632E73726563F1
S113000071C000008FC000008DC000008BC00000D4
S113001089C0000087C0000085C0000083C00000C4
S113002081C000007FC000007DC000007BC00000D4
S113003079C0000077C0000075C0000073C00000E4
S113004071C000006FC000006DC000006BC00000F4
S113005069C0000067C0000065C00000B3C30000B1
S113006061C000001EC400005DC000005BC0000051
S113007059C000008AC0000055C0000053C00000F1
S113008051C000004FC000004DC000004BC0000034
S113009047C4000047C0000045C0000043C0000042
S11300A041C000003FC000003DC000003BC0000054
S11300B039C0000037C0000035C0000033C0000064
S11300C031C000002FC000002DC000002BC0000074
S11300D029C0000027C0000025C0000023C0000084
S11300E021C0000011241FBECFEFD1E2DEBFCDBF7F
S11300F000E00CBF12E0A0E0B2E0ECE0FDE100E0C3
S11301000BBF02C007900D92A83EB107D9F724E0B7
S1130110A8EEB2E001C01D92AA32B207E1F725D5DC
S11301200C94840E6DCF83E880937A0080E48093EE
S11301307C0010927B000895ECE7F0E02081207EA3
S1130140282B2083EBE7F0E0208196958795969500
S11301508795922F977F892B8083EAE7F0E080814F
S1130160806480838081809178009091790060E040
S1130170792F682B80E090E00E945F0A20E030E055
S113018040E85AE30C94150B08951F920F920FB692
S11301900F9211240BB60F922F933F934F935F93BB
S11301A06F937F938F939F93AF93BF93EF93FF933B
S11301B080917800282F30E03093EB022093EA02FC
S11301C08091790090E0982F8827822B932B90932D
S11301D0EB028093EA02E091E802F091E9021995BA
S11301E0FF91EF91BF91AF919F918F917F916F910B
S11301F05F914F913F912F910F900BBE0F900FBEC7
S11302000F901F901895FC0190819F609083FB01D3
S11302108081807F80837093ED026093EC02089567
S1130220CF93DF93CDB7DEB727970FB6F894DEBF31
S11302300FBECDBF282FCB01BA01213081F018F0B9
S11302402230C9F024C020E030E040E055E40E94B0
S1130250150B0E94330A24E0ECE0F2E01DC020E01C
S113026030E040E055E40E94150B0E94330A24E07C
S1130270E8E0F2E011C020E030E040E855E40E94FC
S1130280150B0E94330A28E0E0E0F2E005C060E0CC
S113029070E080E090E020E0FB83EA833E2F4B8116
S11302A0562F672F782F892F90E027960FB6F89452
S11302B0DEBF0FBECDBFDF91CF910895CF92DF9205
S11302C0EF92FF920F931F93CF93DF93CDB7DEB7D7
S11302D027970FB6F894DEBF0FBECDBFA1DF2983E9
S11302E03A834B835C836D837E838F8380E090E0CD
S11302F0DC0140E050E0BA012DC0E091EC02F09145
S1130300ED0210812A813B816C017D010FEFC01A3F
S1130310D00AE00AF00AD901A80FB91F9C91812FD5
S1130320807F892B8083898190E0A0E0B0E0C816AB
S1130330D906EA06FB0618F4D701C60103C080E01B
S113034090E0DC01E0EEFEE23197F1F74F5F5F4FA2
S11303506F4F7F4FCC80DD80EE80FF804C155D05B4
S11303606E057F0550F2E091EC02F091ED02808180
S1130370807F808327960FB6F894DEBF0FBECDBF73
S1130380DF91CF911F910F91FF90EF90DF90CF906D
S11303900895CF93C82F80E090E00E945F0A20E088
S11303A030E044EB53E4F7D7AB01BC018C2F86DF7C
S11303B0CF9108953F924F925F926F927F928F9266
S11303C09F92AF92BF92CF92DF92EF92FF920F93E0
S11303D01F93CF93DF93CDB7DEB72F970FB6F89463
S11303E0DEBF0FBECDBF362E2C873D874E875F877D
S11303F0E886F9860A871B8740E050E0BA0110DFDF
S113040029833A834B835C836D837E838F8333207C
S113041029F0C22ED12CE12CF12C03C0C12CD12CFB
S11304207601812C912C540174C0E091EC02F0917E
S1130430ED028081807F2A813B81332039F0B7012E
S1130440A601415051096109710906C0B701A6010D
S11304504F5F5F4F6F4F7F4FD901AC0DBD1D9C9116
S1130460892B8083C980D12CE12CF12C4C155D059E
S11304706E057F0528F4411551056105710531F4B8
S1130480311006C0C12CD12C760102C06A017B0157
S113049020E030E04AE755E4688579858A859B85C4
S11304A00E94150B2B013C0120E030E040E85FE3A3
S11304B06ED7882324F120E03FEF4FE757E4C301D0
S11304C0B2010E94110B1816B4F420E030E040E2AF
S11304D051E4688579858A859B850E94150BC3D76D
S11304E006C080E991E00197F1F761507109611547
S11304F07105B9F709C0C301B201B5D702C061E003
S113050070E0CB010197F1F78FEF881A980AA80AD7
S1130510B80AC501B401D3D72B013C01288539851C
S11305204A855B856C857D858E859F8534D79B0147
S1130530AC01C301B2012BD788230CF476CFE09130
S1130540EC02F091ED028081807F80832F960FB6BC
S1130550F894DEBF0FBECDBFDF91CF911F910F91F5
S1130560FF90EF90DF90CF90BF90AF909F908F90CF
S11305707F906F905F904F903F9008954F925F925D
S11305806F927F928F929F92AF92BF92FF920F933E
S11305901F93CF93DF93CDB7DEB727970FB6F894A9
S11305A0DEBF0FBECDBFF62E8A0140E050E0BA0197
S11305B037DE29833A834B835C836D837E838F8309
S11305C0FF2029F0822F90E0A0E0B0E003C080E09B
S11305D090E0DC01812C912C54013EC0E091EC02AE
S11305E0F091ED022081207F4A815B81FF2041F060
S11305F02C013D0131E0431A51086108710807C01C
S11306002C013D013FEF431A530A630A730ADA01CE
S1130610A80FB91F8C91822B8083898190E0A0E080
S1130620B0E0481659066A067B0628F441145104C2
S11306306104710431F4F11006C080E090E0DC0143
S113064002C0D301C201E0EEFEE23197F1F72FEFD1
S1130650821A920AA20AB20AA80160E070E0841623
S11306609506A606B70608F4B9CFE091EC02F0911E
S1130670ED028081807F808327960FB6F894DEBFD9
S11306800FBECDBFDF91CF911F910F91FF90BF900F
S1130690AF909F908F907F906F905F904F90089550
S11306A09C011092C00088E98093C10086E0809389
S11306B0C200C901A0E0B0E0880F991FAA1FBB1FA8
S11306C0880F991FAA1FBB1F9C01AD01220F331F66
S11306D0441F551F220F331F441F551F60E074E24F
S11306E084EF90E00E94780B215031092093C400DC
S11306F01092C50008959C011092C80088E9809367
S1130700C90086E08093CA00C901A0E0B0E0880F68
S1130710991FAA1FBB1F880F991FAA1FBB1F9C01EB
S1130720AD01220F331F441F551F220F331F441FD7
S1130730551F60E074E284EF90E0DAD7215031096C
S11307402093CC001092CD0008959091C00095FFA5
S1130750FCCF8093C6000895CF93DF93EC0102C0D1
S1130760F4DF219688818111FBCFDF91CF91089529
S11307709091C80095FFFCCF8093CE000895CF934D
S1130780DF93EC0102C0F4DF219688818111FBCF55
S1130790DF91CF91089586E086BD14BC83E085BDCA
S11307A081E080936E0008952091F8033091F9035D
S11307B0820F931F2091F8033091F9038217930756
S11307C0C9F708951F920F920FB60F9211248F93B9
S11307D09F9386E086BD8091F8039091F90301967A
S11307E09093F9038093F8039F918F910F900FBE1C
S11307F00F901F901895F999FECF72BD61BD80BD11
S113080084E08FBB8FB382608FBB0895F999FECFCC
S113081092BD81BD8FB381608FBB80B5089584B1D3
S1130820806684B985B190E08F7995B1892B85B9BB
S113083088E893E1909387008093860082E0809318
S113084080008BE1809381000895811111C0262FCF
S113085030E0AAEFB0E06ED72FEF30E040E050E098
S113086047D726503F4F309389002093880008953E
S1130870813081F4262F30E0AAEFB0E05BD72FEF70
S113088030E040E050E034D726503F4F30938B00A7
S113089020938A000895E0E8F0E08081806A8083F4
S11308A008951F920F920FB60F9211240BB60F9258
S11308B08F93AF93BF93EF93FF938091C6008D30D6
S11308C0F1F08091C6008A30D1F08091C60088236F
S11308D0B1F08091F0038F3790F4A0EFB3E0EC9186
S11308E0F0E08091C600E059FC4F8083EC91F0E089
S11308F0EF58FC4F10828C918F5F8C9305C081E080
S11309008093F1031092F003FF91EF91BF91AF91A7
S11309108F910F900BBE0F900FBE0F901F901895E4
S11309201F920F920FB60F9211240BB60F928F9352
S1130930AF93BF93EF93FF938091CE008D30F1F08E
S11309408091CE008A30D1F08091CE008823B1F01E
S113095080916E038F3790F4AEE6B3E0EC91F0E053
S11309608091CE00E251FD4F8083EC91F0E0E151A3
S1130970FD4F10828C918F5F8C9305C081E0809332
S11309806F0310926E03FF91EF91BF91AF918F911E
S11309900F900BBE0F900FBE0F901F90189517B8B5
S11309A080E188B911B88FEF82B980930A0110925F
S11309B00B010895AF92BF92DF92EF92FF920F93D3
S11309C01F93CF93DF938C01D12C26C058012FEFB6
S11309D0A21AB20AC8011ADF30E0C32FD82F780157
S11309E082E0E80EF11CC50111DF9E01280F311DC4
S11309F0CD2DD0E0CC0FDD1FCC0FDD1FC650DC4F5A
S1130A0039832883C70102DF8A83C80103960C5FF8
S1130A101F4FFCDE8B83D39435E03D15B8F6DF9190
S1130A20CF911F910F91FF90EF90DF90BF90AF9007
S1130A300895AF92BF92CF92DF92FF920F931F93CC
S1130A40CF93DF938C01F12C2CC0CF2DD0E0CC0FB1
S1130A50DD1FCC0FDD1FFE01E650FC4FCE5EDB4FE9
S1130A6088819981AA81BB8180839183A283B38386
S1130A7058018FEFA81AB80AB8018981BCDE680151
S1130A8082E0C80ED11CB5018881B5DEB6018A8129
S1130A90B2DEB8016D5F7F4F0C5F1F4F8B81ABDE01
S1130AA0F39485E08F1588F6DF91CF911F910F9114
S1130AB0FF90DF90CF90BF90AF900895AC0190E08D
S1130AC0292F30E0FA01E20FF31FE081DB01A20FCE
S1130AD0B31F8C91E81311C09F5F292F30E0FA01F6
S1130AE0E20FF31F8081882351F0FB01E20FF31F13
S1130AF080818111E5CF81E0089580E0089581E04F
S1130B000895CF93DF9300D0CDB7DEB7C557DF4F3D
S1130B108881CB58D0408983C457DF4F888199811D
S1130B20CC58D0409B838A83C657DF4F8881CA58EC
S1130B30D0408823A1F09981911106C0C657DF4F98
S1130B408881CA58D04001C080E0C657DF4F8883EF
S1130B50CA58D0406A817B81CE010996AFDF0F90DD
S1130B600F900F90DF91CF910895CF93DF93CDB77E
S1130B70DEB7C058D1090FB6F894DEBF0FBECDBFA3
S1130B800EDFD1DA4CDE87DE68E270E087E290E0C7
S1130B903ADB85E595E00EDF80E895E281DD80E1D2
S1130BA092E0DADD80E895E2A6DD80E192E0E7DD1F
S1130BB0F2DD789480916F03882319F08EEE92E031
S1130BC0CBDD8FE192E09F938F931F922DB73EB7B9
S1130BD0225831090FB6F8943EBF0FBE2DBFADB7F2
S1130BE0BEB7119682E8E0E7F3E001900D928A9592
S1130BF0E1F787DF0FB6F894DEBF0FBECDBF8823C1
S1130C0021F08091F703823051F58FE192E09F93B8
S1130C108F931F928DB79EB7825891090FB6F8949F
S1130C209EBF0FBE8DBFADB7BEB7119682E8EEEE84
S1130C30F2E001900D928A95E1F763DF0FB6F89424
S1130C40DEBF0FBECDBF882321F08091F703823031
S1130C5031F4029B14C08091F703823081F089E261
S1130C6092E07ADD89E292E08ADD82E08093F70304
S1130C701092F10310926F030299FECF5DC083E4DA
S1130C8092E09F938F931F928DB79EB782589109DC
S1130C900FB6F8949EBF0FBE8DBFADB7BEB7119609
S1130CA082E8E0E7F3E001900D928A95E1F729DF0D
S1130CB00FB6F894DEBF0FBECDBF882321F080911C
S1130CC0F70381112BC083E492E09F938F9381E01B
S1130CD08F938DB79EB7825891090FB6F8949EBF33
S1130CE00FBE8DBFADB7BEB7119682E8EEEEF2E04F
S1130CF001900D928A95E1F704DF0FB6F894DEBFF8
S1130D000FBECDBF882321F08091F703811106C067
S1130D10039B12C08091F703882371F089E492E069
S1130D201BDD89E492E02BDD1092F7031092F103AE
S1130D3010926F030399FECFEBE0F1E08081982FCE
S1130D409C7F8091F703892B808388E592E09F93B1
S1130D508F931F928DB79EB7825891090FB6F8945E
S1130D609EBF0FBE8DBFADB7BEB7119682E8E0E758
S1130D70F3E001900D928A95E1F7C3DE0FB6F89483
S1130D80DEBF0FBECDBF811120C088E592E09F93E6
S1130D908F931F928DB79EB7825891090FB6F8941E
S1130DA09EBF0FBE8DBFADB7BEB7119682E8EEEE03
S1130DB0F2E001900D928A95E1F7A3DE0FB6F89464
S1130DC0DEBF0FBECDBF882319F1E3EFF3E09281BC
S1130DD083811F929F931F928F9381818F93808130
S1130DE08F938CE592E09F938F938E010F5F1F4F3B
S1130DF01F930F93AED41092F10310926F03C801A6
S1130E00ABDCC801BCDC0FB6F894DEBF0FBECDBFAF
S1130E108091F703813021F0823009F42BC129C27B
S1130E20009921C08BE892E09F938F9381E08F9388
S1130E302DB73EB7225831090FB6F8943EBF0FBE06
S1130E402DBFADB7BEB7119682E8E0E7F3E001909D
S1130E500D928A95E1F755DE0FB6F894DEBF0FBE0A
S1130E60CDBF882311F0D12CF9C088E592E09F937F
S1130E708F931F928DB79EB7825891090FB6F8943D
S1130E809EBF0FBE8DBFADB7BEB7119682E8E0E737
S1130E90F3E001900D928A95E1F733DE0FB6F894F2
S1130EA0DEBF0FBECDBF8111DECF84CEED2CF12C81
S1130EB0C70101969F938F938FE892E09F938F933E
S1130EC08E010F5F1F4F1F930F9343D4C80144DC5F
S1130ED0C80155DCEBE0F1E02081A7014E5F5F4FD4
S1130EE081E090E002C0880F991F4A95E2F7922FA3
S1130EF09370892B8083F701EE0FFF1FEE0FFF1F06
S1130F00E650FC4F408151818091F3039091F403AA
S1130F10481B590B0F900F900F900F900F900F904C
S1130F201416150624F460E082E028DB08C055237B
S1130F3034F451954195510961E082E01FDBC12CE5
S1130F4035C00091F50310E0F701EE0FFF1FEE0F1F
S1130F50FF1FE650FC4F628170E0601B710B072E8F
S1130F60000C880B990BADD24B015C016C2D70E029
S1130F7080E090E0A4D220E030E048EC52E40BD2D0
S1130F809B01AC01C501B40150D34B015C01B80114
S1130F90110F880B990B95D2A501940194D163D2BA
S1130FA080E053DC8AE090E0FFDBC39434E63C1538
S1130FB008F0C7CFC12C35C00091F60310E0F7014B
S1130FC0EE0FFF1FEE0FFF1FE650FC4F638170E032
S1130FD0601B710B072E000C880B990B72D24B010E
S1130FE05C016C2D70E080E090E069D220E030E09C
S1130FF048EC52E4D0D19B01AC01C501B40115D336
S11310004B015C01B801110F880B990B5AD2A50151
S1131010940159D128D281E018DC8AE090E0C4DB45
S1131020C39484E68C1508F0C7CFF701EE0FFF1FB9
S1131030EE0FFF1FE650FC4F80819181A3EFB3E0D8
S113104011969C938E93828112968C93129783812E
S113105013968C9384E690E0A7DBD39495E09D15DA
S113106008F024CFEBE0F1E0808183708083009965
S1131070FECFA0CD80E090E05FD820E030E04FE7E5
S113108053E4D3D2F0D1E62E81E090E055D820E0AD
S113109030E04FE753E4C9D2E6D1F62E8091F20353
S11310A090E001969F938F938BEA92E09F938F93A6
S11310B08E010F591F4F1F930F934BD3C8014CDB65
S11310C0C8015DDBEBE0F1E040812091F20330E008
S11310D02E5F3F4F81E090E002C0880F991F2A9550
S11310E0E2F7942F9370892B80830F900F900F90C9
S11310F00F900F900F90019B0BC048E050E060E010
S113110082E03CDA8AE090E04FDB08E010E00FC0B8
S1131110009B0BC048E050E061E082E02FDA8AE0F7
S113112090E042DB08EF1FEF02C000E010E06E2DFC
S113113080E08BDB6F2D81E088DBE3EFF3E08081DF
S11311409181080F191F11830083E282F3820299AF
S113115043C089EC92E09F938F9381E08F932DB7E6
S11311603EB7225831090FB6F8943EBF0FBE2DBFCB
S1131170ADB7BEB7119682E8E0E7F3E001900D92B7
S11311808A95E1F7BEDC0FB6F894DEBF0FBECDBF83
S1131190811122C089EC92E09F938F9381E08F9319
S11311A08DB79EB7825891090FB6F8949EBF0FBEB3
S11311B08DBFADB7BEB7119682E8EEEEF2E00190B6
S11311C00D928A95E1F79DDC0FB6F894DEBF0FBE51
S11311D0CDBF882309F4EECCE3EFF3E09281838161
S11311E01F929F931F928F9381818F9380818F93FE
S11311F080ED92E09F938F938E010F5F1F4F1F939B
S11312000F93A7D2C801A8DAC801B9DAEBE0F1E07C
S1131210808183708083E091F2030FB6F894DEBF7F
S11312200FBECDBFE630B8F481E08E0F8093F20399
S1131230F0E0EE0FFF1FEE0FFF1FEE5EFB4F8091FD
S1131240F3039091F403A091F503B091F603808326
S11312509183A283B3838091F203863038F085E5CD
S113126095E0E7DB1092F2031092F7030299FECFA8
S1131270A1CC66E980E0E9DA66EE81E0E6DAE12C09
S1131280F12C00E410E420E030E04AE754E460E0AC
S113129082E090D805C048E150E061E082E06ED978
S11312A0349BF9CF63E270E082E073D8E3EFF3E0BC
S11312B01182108286E9828386EE838381E08093A3
S11312C0F70378CC5058BB27AA270ED070C161D140
S11312D030F066D120F031F49F3F11F41EF456C172
S11312E00EF4E095E7FB4CC1E92F72D180F3BA17F5
S11312F0620773078407950718F071F49EF58AC195
S11313000EF4E0950B2EBA2FA02D0B01B90190011C
S11313100C01CA01A0011124FF27591B99F0593F60
S113132050F4503E68F11A16F040A22F232F342FA8
S11313304427585FF3CF469537952795A795F040F6
S11313405395C9F77EF41F16BA0B620B730B840B0B
S1131350BAF09150A1F0FF0FBB1F661F771F881FC3
S1131360C2F70EC0BA0F621F731F841F48F487951B
S113137077956795B795F7959E3F08F0B3CF93950A
S1131380880F08F09927EE0F979587950895D4D084
S113139008F481E008950CD00AC102D140F0F9D0DC
S11313A030F021F45F3F19F0EBC0511134C1EEC0AD
S11313B00FD198F39923C9F35523B1F3951B550B1A
S11313C0BB27AA2762177307840738F09F5F5F4F14
S11313D0220F331F441FAA1FA9F333D00E2E3AF055
S11313E0E0E830D091505040E695001CCAF729D06F
S11313F0FE2F27D0660F771F881FBB1F26173707BE
S11314004807AB07B0E809F0BB0B802DBF01FF27ED
S113141093585F4F2AF09E3F510568F0B1C0FBC05E
S11314205F3FECF3983EDCF3869577956795B79527
S1131430F7959F5FC9F7880F911D9695879597F942
S11314400895E1E0660F771F881FBB1F62177307BB
S11314508407BA0720F0621B730B840BBA0BEE1FD0
S113146088F7E0950895BCD088F09F5790F0B92F85
S11314709927B751A0F0D1F0660F771F881F991FE5
S11314801AF0BA95C9F712C0B13081F0C3D0B1E0F7
S11314900895C0C0672F782F8827B85F39F0B93F07
S11314A0CCF3869577956795B395D9F73EF49095E7
S11314B08095709561957F4F8F4F9F4F0895E89465
S11314C009C097FB3EF490958095709561957F4F88
S11314D08F4F9F4F9923A9F0F92F96E9BB27939536
S11314E0F695879577956795B795F111F8CFFAF446
S11314F0BB0F11F460FF1BC06F5F7F4F8F4F9F4F77
S113150016C0882311F096E911C0772321F09EE8D4
S1131510872F762F05C0662371F096E8862F70E03A
S113152060E02AF09A95660F771F881FDAF7880F14
S11315309695879597F90895990F0008550FAA0B6A
S1131540E0E8FEEF16161706E807F907C0F01216D2
S11315501306E407F50798F0621B730B840B950BD5
S113156039F40A2661F0232B242B252B21F408952A
S11315700A2609F4A140A6958FEF811D811D0895C7
S113158097F99F6780E870E060E008959FEF80EC32
S1131590089500240A9416161706180609060895D5
S11315A000240A9412161306140605060895092E3B
S11315B00394000C11F4882352F0BB0F40F4BF2BAA
S11315C011F460FF04C06F5F7F4F8F4F9F4F0895EA
S11315D057FD9058440F551F59F05F3F71F04795E0
S11315E0880F97FB991F61F09F3F79F087950895C5
S11315F0121613061406551FF2CF4695F1DF08C0E4
S1131600161617061806991FF1CF86957105610500
S113161008940895E894BB2766277727CB0197F9A8
S113162008958ADF08F48FEF08950BD0C0CFB1DF9F
S113163028F0B6DF18F0952309F0A2CFA7CF112424
S1131640EACFC6DFA0F3959FD1F3950F50E0551F65
S1131650629FF001729FBB27F00DB11D639FAA2703
S1131660F00DB11DAA1F649F6627B00DA11D661F52
S1131670829F2227B00DA11D621F739FB00DA11D73
S1131680621F839FA00D611D221F749F3327A00D2D
S1131690611D231F849F600D211D822F762F6A2FC9
S11316A011249F5750408AF0E1F088234AF0EE0F4E
S11316B0FF1FBB1F661F771F881F91505040A9F75B
S11316C09E3F510570F05CCFA6CF5F3FECF3983E90
S11316D0DCF3869577956795B795F795E7959F5FC2
S11316E0C1F7FE2B880F911D9695879597F908955C
S11316F0A1E21A2EAA1BBB1BFD010DC0AA1FBB1F12
S1131700EE1FFF1FA217B307E407F50720F0A21B83
S1131710B30BE40BF50B661F771F881F991F1A94F0
S113172069F760957095809590959B01AC01BD011A
S1131730CF010895A29FB001B39FC001A39F700D74
S1131740811D1124911DB29F700D811D1124911DC5
S113175008950F931F93CF93DF93CDB7DEB72E97E2
S11317600FB6F894DEBF0FBECDBF0E891F8986E089
S11317708C831A8309838FEF9FE79E838D83AE0149
S1131780465E5F4F688D798DCE01019610D0EF8152
S1131790F885E00FF11F10822E960FB6F894DEBF85
S11317A00FBECDBFDF91CF911F910F9108952F925E
S11317B03F924F925F926F927F928F929F92AF92DD
S11317C0BF92CF92DF92EF92FF920F931F93CF932A
S11317D0DF93CDB7DEB72B970FB6F894DEBF0FBEFD
S11317E0CDBF6C017B018A01FC01178216828381C3
S11317F081FFBFC1CE0101963C01F6019381F7013F
S113180093FD859193FF81917F01882309F4ADC1F4
S1131810853239F493FD859193FF81917F0185325F
S113182021F4B60190E0D6D1E8CF912C212C312CB3
S1131830FFE1F315D8F08B3279F038F4803279F087
S11318408332A1F4232D20611DC08D3261F08033D9
S113185069F4232D216016C0832D8260382EE32D78
S1131860E4603E2E2AC0F32DF8601DC037FC2DC065
S113187020ED280F2A3040F08E32B9F436FC75C1C1
S1131880232D2064322E19C036FE06C08AE0989EAD
S1131890200D1124922E11C0EAE02E9E200D112459
S11318A0222EF32DF0623F2E08C08C3621F4832DB6
S11318B08068382E02C0883641F4F70193FD859183
S11318C093FF81917F018111B3CF982F9F7D955410
S11318D0933028F40C5F1F4F9FE399830DC0833628
S11318E031F0833771F0833509F055C020C0F80119
S11318F0808189830E5F1F4F88248394912C530128
S113190012C02801F2E04F0E511CF801A080B180F2
S113191036FE03C0692D70E002C06FEF7FEFC50192
S11319204ED14C018201F32DFF773F2E15C02801C3
S113193022E0420E511CF801A080B18036FE03C0A3
S1131940692D70E002C06FEF7FEFC5012DD14C010E
S1131950F32DF0683F2E820133FC19C0822D90E0F4
S113196088169906A0F4B60180E290E033D12A9457
S1131970F5CFF50137FC859137FE81915F01B60102
S113198090E028D121102A9421E0821A9108811430
S1131990910479F7E1C0843611F0893639F5F801FC
S11319A037FE07C060817181828193810C5F1F4F74
S11319B008C060817181072E000C880B990B0E5FA3
S11319C01F4FF32DFF763F2E97FF09C0909580950A
S11319D0709561957F4F8F4F9F4FF0683F2E2AE09F
S11319E030E0A30133D1882E861844C0853731F402
S11319F0232D2F7EB22E2AE030E025C0932D997F2F
S1131A00B92E8F36C1F018F4883579F0AEC080371E
S1131A1019F0883721F0A9C0E92FE061BE2EB4FE89
S1131A200DC0FB2DF460BF2E09C034FE0AC0292F5F
S1131A302660B22E06C028E030E005C020E130E088
S1131A4002C020E132E0F801B7FE07C06081718175
S1131A50828193810C5F1F4F06C06081718180E099
S1131A6090E00E5F1F4FA301F1D0882E8618FB2D46
S1131A70FF773F2E36FE0DC0232D2E7FA22E891414
S1131A8058F434FE0BC032FC09C0832D8E7EA82E80
S1131A9005C0B82CA32C03C0B82C01C0B92CA4FEDB
S1131AA00FC0FE01E80DF11D8081803321F49A2DD1
S1131AB0997EA92E09C0A2FE06C0B394B39404C0B3
S1131AC08A2D867809F0B394A3FC10C0A0FE06C04A
S1131AD0B21480F4280C922C9B180DC0B21458F444
S1131AE0B60180E290E076D0B394F8CFB21418F443
S1131AF02B1802C0982C212CA4FE0FC0B60180E341
S1131B0090E068D0A2FE16C0A1FC03C088E790E074
S1131B1002C088E590E0B6010CC08A2D867851F0A9
S1131B20A1FE02C08BE201C080E2A7FC8DE2B601F7
S1131B3090E050D0891430F4B60180E390E04AD0AC
S1131B409A94F8CF8A94F301E80DF11D8081B601CF
S1131B5090E040D08110F6CF222009F44ECEB60199
S1131B6080E290E037D02A94F7CFF60186819781FE
S1131B7002C08FEF9FEF2B960FB6F894DEBF0FBE17
S1131B80CDBFDF91CF911F910F91FF90EF90DF9028
S1131B90CF90BF90AF909F908F907F906F905F9009
S1131BA04F903F902F900895FC0105906150704034
S1131BB00110D8F7809590958E0F9F1F0895FC0112
S1131BC06150704001900110D8F7809590958E0F68
S1131BD09F1F08950F931F93CF93DF93FB012381DE
S1131BE021FD03C08FEF9FEF2CC022FF16C046815A
S1131BF05781248135814217530744F4A081B18170
S1131C009D012F5F3F4F318320838C932681378141
S1131C102F5F3F4F3783268314C08B01EC01FB01F8
S1131C200084F185E02D1995892BE1F6D8011696EB
S1131C308D919C911797019617969C938E93169766
S1131C40CE01DF91CF911F910F910895FA01AA2738
S1131C50283051F1203181F1E8946F936E7F6E5FEB
S1131C607F4F8F4F9F4FAF4FB1E03ED0B4E03CD099
S1131C70670F781F891F9A1FA11D680F791F8A1F7C
S1131C80911DA11D6A0F711D811D911DA11D20D0E3
S1131C9009F468943F912AE0269F11243019305D9D
S1131CA03193DEF6CF010895462F4770405D41938E
S1131CB0B3E00FD0C9F7F6CF462F4F70405D4A33DB
S1131CC018F0495D31FD4052419302D0A9F7EACFA3
S1131CD0B4E0A6959795879577956795BA95C9F7D2
S1131CE000976105710508959B01AC010A2E0694C5
S1131CF05795479537952795BA95C9F7620F731F7E
S10F1D00841F951FA01D0895F894FFCFC8
S1131D0C0901030206040C0803060C090102040869
S1131D1C4372616E65206F6E6C696E650D0A0043CB
S1131D2C616C69627261746500456E746572696E8A
S1131D3C67207265636F7264206D6F64652E2E2E3E
S1131D4C0D0A005265736574005265736574746989
S1131D5C6E672E2E2E0D0A00476574004D6F746F3E
S1131D6C722069732061742025692C20506C756E67
S1131D7C6765722069732061742025752C2041726B
S1131D8C6D2069732061742025750052756E0052A4
S1131D9C756E6E696E67207265636F72646564201C
S1131DAC737465702025752E2E2E005265636F7228
S1131DBC64696E672073746570202575206F757463
S1131DCC206F6620362E2E2E005265636F726400CF
S1131DDC5265636F72646564207B25692C25752CB0
S10B1DEC25757D2E2E2E00004A
S9030000FC
