S015000050726F6365647572652054776F2E737265630C
S113000071C0000081C000007FC000007DC00000FE
S11300107BC0000079C0000077C0000075C00000FC
S113002073C0000071C000006FC000006DC000000C
S11300306BC0000069C0000067C0000065C000001C
S113004063C0000061C000005FC000005DC000002C
S11300505BC0000059C0000057C0000055C000003C
S113006053C0000080C000004FC000004DC000001D
S11300704BC0000049C0000047C0000045C000005C
S113008043C0000041C000003FC000003DC000006C
S11300903BC0000039C0000037C0000035C000007C
S11300A033C0000031C000002FC000002DC000008C
S11300B02BC0000029C0000027C0000025C000009C
S11300C023C0000021C000001FC000001DC00000AC
S11300D01BC0000019C0000017C0000015C00000BC
S11300E013C0000011241FBECFEFD1E2DEBFCDBF8D
S11300F000E00CBF22E0A0E0B2E001C01D92A230FB
S1130100B207E1F765D077C07BCF1092C00088E9D1
S11301108093C10086E08093C20087E68093C40088
S11301201092C5000895DC0120E030E00CC09091ED
S1130130C00095FFFCCFFD01E20FF31F8081809387
S1130140C6002F5F3F4FFD0101900020E9F7319772
S1130150EA1BFB0B2E173F0750F3089590930102FF
S11301608093000208951F920F920FB60F921124EC
S11301700BB60F922F933F934F935F936F937F939D
S11301808F939F93AF93BF93EF93FF938091C60098
S1130190E0910002F09101021995FF91EF91BF9156
S11301A0AF919F918F917F916F915F914F913F910B
S11301B02F910F900BBE0F900FBE0F901F901895AC
S11301C082B908958FEF81B912B817B888B9089524
S11301D0CF93DF931F921F92CDB7DEB7F3DF95DF86
S11301E080EE90E0BBDF789486B189831A82CE01D9
S10D01F0019699DFF9CFF894FFCFD0
S9030000FC
