:1000000071C0000081C000007FC000007DC0000002
:100010007BC0000079C0000077C0000075C0000000
:1000200073C0000071C000006FC000006DC0000010
:100030006BC0000069C0000067C0000065C0000020
:1000400063C0000061C000005FC000005DC0000030
:100050005BC0000059C0000057C0000055C0000040
:1000600053C000000DC100004FC000004DC0000093
:100070004BC0000049C0000047C0000045C0000060
:1000800043C0000041C000003FC000003DC0000070
:1000900024C1000039C0000037C0000035C0000096
:1000A00033C0000031C000002FC000002DC0000090
:1000B0002BC0000029C0000027C0000025C00000A0
:1000C00023C0000021C000001FC0000033C1000099
:1000D0001BC0000019C000005AC1000015C000007C
:1000E00013C0000011241FBECFEFD1E2DEBFCDBF91
:1000F00000E00CBF22E0A0E0B2E001C01D92A830F9
:10010000B207E1F779D1ADC17BCFCF93C82F9A0168
:10011000AB0160E472E48FE090E081D121503109BD
:10012000C23011F1C33079F1C13079F01092C000C2
:1001300088E18093C10086E08093C2002093C400D0
:10014000832F8F708093C5002CC01092C80088E167
:100150008093C90086E08093CA002093CC00832F4F
:100160008F708093CD001DC01092D00088E18093E5
:10017000D10086E08093D2002093D400832F8F702B
:100180008093D5000EC01092300188E18093310138
:1001900086E08093320120933401832F8F70809307
:1001A0003501CF910895CF93C82FAFDFC23061F0F2
:1001B000C33071F0C13021F088E98093C1000BC0D9
:1001C00088E98093C90007C088E98093D10003C003
:1001D00088E980933101CF910895E82FF0E0EE0F88
:1001E000FF1FE050FE4F718360830895FC019081F2
:1001F0009623E9F3F9018081FA01808308959B0138
:10020000823091F08330B9F0813039F046EC50E023
:1002100060E280EC90E0EACF08954EEC50E060E2BE
:1002200088EC90E0E3CF089546ED50E060E280ED89
:1002300090E0DCCF089546E351E060E280E391E096
:10024000D5CF0895DF92EF92FF920F931F93CF9334
:10025000DF93D82E7B018A01C0E0D0E006C0B70151
:100260006C0F7D1F8D2DCBDF2196C017D107B8F302
:10027000DF91CF911F910F91FF90EF90DF90089544
:100280001F920F920FB60F9211240BB60F922F935D
:100290003F934F935F936F937F938F939F93AF930E
:1002A000BF93EF93FF93E0910002F09101028091E0
:1002B000C6001995FF91EF91BF91AF919F918F91DA
:1002C0007F916F915F914F913F912F910F900BBE56
:1002D0000F900FBE0F901F9018951F920F920FB6A0
:1002E0000F9211240BB60F922F933F934F935F936E
:1002F0006F937F938F939F93AF93BF93EF93FF93EE
:10030000E0910202F09103028091CE001995FF91D5
:10031000EF91BF91AF919F918F917F916F915F917D
:100320004F913F912F910F900BBE0F900FBE0F90EA
:100330001F9018951F920F920FB60F9211240BB6B3
:100340000F922F933F934F935F936F937F938F936E
:100350009F93AF93BF93EF93FF93E0910402F091CB
:1003600005028091D6001995FF91EF91BF91AF9151
:100370009F918F917F916F915F914F913F912F91BD
:100380000F900BBE0F900FBE0F901F9018951F92ED
:100390000F920FB60F9211240BB60F922F933F932B
:1003A0004F935F936F937F938F939F93AF93BF937D
:1003B000EF93FF93E0910602F091070280913601DE
:1003C0001995FF91EF91BF91AF919F918F917F917F
:1003D0006F915F914F913F912F910F900BBE0F90B6
:1003E0000FBE0F901F90189582B908958FEF81B9B5
:1003F00012B817B888B90895F9DF40E855E260E00F
:1004000070E081E0D0DE64EF71E081E0E6DE7894B8
:1004100041E050E066E270E081E014DFF9CFA1E254
:100420001A2EAA1BBB1BFD010DC0AA1FBB1FEE1F6E
:10043000FF1FA217B307E407F50720F0A21BB30BB9
:10044000E40BF50B661F771F881F991F1A9469F735
:1004500060957095809590959B01AC01BD01CF0191
:060460000895F894FFCF9F
:00000001FF
