:1000000071C0000081C000007FC000008CC00000F3
:100010007BC0000079C0000077C0000075C0000000
:1000200073C0000071C000006FC000006DC0000010
:100030006BC0000069C0000067C0000065C0000020
:1000400063C0000061C000005FC000005DC0000030
:100050005BC0000059C0000057C0000055C0000040
:1000600053C0000051C000004FC000004DC0000050
:100070004BC0000049C0000047C0000045C0000060
:1000800043C0000041C000003FC000003DC0000070
:100090003BC0000039C0000037C0000035C0000080
:1000A00033C0000031C000002FC000002DC0000090
:1000B0002BC0000029C0000027C0000025C00000A0
:1000C00023C0000021C000001FC000001DC00000B0
:1000D0001BC0000019C0000017C0000015C00000C0
:1000E00013C0000011241FBECFEFD1E2DEBFCDBF91
:1000F00000E00CBF22E0A0E0B2E001C01D92A230FF
:10010000B207E1F737D049C07BCF86E08AB98BB917
:1001100084E08DBB80E280936900089580910002A5
:100120001092000208951F920F920FB60F921124A1
:100130008F93499B0BC081E1809300028091010263
:100140008F3F71F08F5F809301020AC080E180933E
:10015000000280910102882319F0815080930102EE
:100160008F910F900FBE0F901F9018958FEF81B950
:1001700012B80895CADFFADF7894D0DF84FFFDCF8C
:1001800080FF07C082B190E0880F991F816082B91B
:0E019000F4CF82B1869582B9F0CFF894FFCFFC
:00000001FF
