S015000050726F636564757265204F6E652E7372656324
S113000071C000008EC000008CC000008AC00000D7
S113001088C0000086C0000084C0000082C00000C8
S113002080C000007EC000007CC000007AC00000D8
S113003078C0000076C0000074C0000072C00000E8
S113004070C000006EC000006CC000006AC00000F8
S113005068C0000066C0000064C0000062C0000008
S113006060C00000A9C000005CC000005AC00000CD
S113007058C0000056C0000054C0000052C0000028
S113008050C000004EC000004CC000004AC0000038
S113009048C0000046C0000044C0000042C0000048
S11300A040C000003EC000003CC000003AC0000058
S11300B038C0000036C0000034C0000032C0000068
S11300C030C000002EC000002CC000002AC0000078
S11300D028C0000026C0000024C0000022C0000088
S11300E020C0000011241FBECFEFD1E2DEBFCDBF80
S11300F000E00CBF12E0A0E0B2E0E4E3F6E000E0D0
S11301000BBF02C007900D92A630B107D9F722E0C9
S1130110A6E0B2E001C01D92AC30B207E1F779D09D
S113012087C26ECFF999FECF92BD81BD8FB3816036
S11301308FBB80B50895AF92BF92CF92DF92EF92BA
S1130140FF920F931F93CF93DF935C0180E091E0C4
S113015065D06C01C0E0D0E008C07601EC0EFD1E55
S1130160C801E0DFF701808321968E010A0D1B1D73
S1130170C801D8DF8111F1CFF601EC0FFD1F108209
S1130180BE01C6016CD1DF91CF911F910F91FF90F9
S1130190EF90DF90CF90BF90AF9008951092C00081
S11301A088E18093C10086E08093C20087E6809353
S11301B0C4001092C50008951F920F920FB60F92BB
S11301C011240BB60F922F933F934F935F936F932A
S11301D07F938F939F93AF93BF93EF93FF938091FC
S11301E0C600E0910602F09107021995FF91EF9184
S11301F0BF91AF919F918F917F916F915F914F913B
S11302003F912F910F900BBE0F900FBE0F901F9038
S11302101895C4DF80E091E08EDFFFCF0F931F932A
S1130220CF93DF938230910510F482E090E0E09167
S11302300A02F0910B0220E030E0A0E0B0E0309739
S113024019F1408151810281138148175907C8F07F
S11302508417950769F4109731F012960C9312974E
S113026013961C9327C000930A0210930B0222C01A
S11302702115310519F04217530718F49A01BD01ED
S1130280EF01DF01F801DBCF21153105F9F0281B5F
S1130290390B2430310580F48A819B816115710505
S11302A021F0FB019383828304C090930B0280931B
S11302B00A02FE01329644C0FE01E20FF31F81934D
S11302C0919322503109398328833AC0209108023E
S11302D030910902232B41F4209102023091030250
S11302E03093090220930802209100023091010208
S11302F02115310541F42DB73EB7409104025091C8
S11303000502241B350BE0910802F0910902E21763
S1130310F307A0F42E1B3F0B2817390778F0AC0124
S11303204E5F5F4F2417350748F04E0F5F1F509301
S11303300902409308028193919302C0E0E0F0E047
S1130340CF01DF91CF911F910F910895CF93DF9348
S1130350009709F481C0FC01329713821282A091A4
S11303600A02B0910B02109781F420813181820F2F
S1130370931F20910802309109022817390751F57B
S1130380F0930902E093080267C0ED0120E030E039
S1130390CE17DF0740F44A815B819E014115510568
S11303A0F1F0EA01F5CFD383C28340815181840FF8
S11303B0951FC817D90759F488819981840F951F0F
S11303C00296918380838A819B8193838283211502
S11303D0310529F4F0930B02E0930A023DC0E901D0
S11303E0FB83EA8349915991C40FD51FEC17FD078C
S11303F061F480819181840F951F0296E9019983AC
S11304008883828193819B838A83E0E0F0E0129663
S11304108D919C911397009719F0FD01DC01F7CFA2
S11304208D919C9111979D012E5F3F4F820F931FD9
S113043020910802309109022817390769F430978E
S113044029F410920B0210920A0202C01382128243
S1130450B0930902A0930802DF91CF9108956F929F
S11304607F928F929F92AF92BF92CF92DF92EF9240
S1130470FF920F931F93CF93DF93009781F4CB01E7
S1130480DF91CF911F910F91FF90EF90DF90CF906C
S1130490BF90AF909F908F907F906F90BFCEFC01E4
S11304A0E60FF71F9C0122503109E217F30708F405
S11304B0A5C0EC01D9010D911C91119706171707DE
S11304C0A8F00530110508F497C0C80104978617F1
S11304D0970708F491C002501109061B170B0193EA
S11304E011936D937C93CF0131DF86C05B01A01A19
S11304F0B10A4C01800E911EA0910A02B0910B0228
S1130500612C712CE12CF12C109709F446C08D91CB
S11305109C911197A815B905B1F56C0142E0C40E80
S1130520D11CCA14DB0478F14C018A189B086401BD
S113053042E0C40ED11C1296BC9012971396AC9153
S1130540B5E0CB16D10440F0B282A38391828082BD
S1130550D9016D937C9309C00E5F1F4F800F911FCB
S1130560F90191838083EB2DFA2FE114F10431F02A
S1130570D7011396FC93EE9312973EC0F0930B02AF
S1130580E0930A0239C06816790608F43C017D013B
S113059012960D90BC91A02DB7CF80910802909136
S11305A0090288169906E1F466167706C8F4809164
S11305B0000290910102009741F48DB79EB74091DB
S11305C0040250910502841B950BE817F907B0F457
S11305D0F0930902E0930802F901718360830CC06F
S11305E0CB011CDE7C01009749F0A801BE0117D0A5
S11305F0CE01ACDEC70104C0CE0102C080E090E0B1
S1130600DF91CF911F910F91FF90EF90DF90CF90EA
S1130610BF90AF909F908F907F906F900895FB0153
S1130620DC0102C001900D9241505040D8F708956A
S1070630F894FFCF68
S109063400000C0220008E
S9030000FC
